:020000040800F2
:1000000000000120B1120008F9120008F9120008DE
:10001000F9120008F9120008F912000800000000A7
:10002000000000000000000000000000F9120008BD
:10003000F912000800000000F9120008F56E00082F
:10004000F9120008F9120008F9120008F912000864
:10005000F9120008F9120008F9120008F912000854
:10006000F9120008F9120008F9120008F912000844
:10007000F9120008F9120008F9120008F912000834
:10008000F9120008F9120008F9120008F912000824
:10009000F9120008F9120008F9120008751A000890
:1000A000F9120008F9120008F9120008F912000804
:1000B000F9120008F9120008F9120008F9120008F4
:1000C000F9120008F9120008F9120008F9120008E4
:1000D000F9120008F9120008F9120008F9120008D4
:1000E000F9120008C56F0008CD19000800000000D3
:1000F0000000000000000000000000000000000000
:100100000000000000000000F9120008F9120008C9
:10011000F9120008F9120008F9120008F912000893
:10012000F9120008F9120008F9120008F912000883
:10013000F9120008F9120008F9120008F912000873
:10014000F9120008F9120008F91200080D1A000847
:10015000000000000000000000000000000000009F
:10016000000000000000000000000000000000008F
:10017000000000000000000000000000000000007F
:10018000000000000000000000000000000000006F
:10019000000000000000000000000000000000005F
:1001A000000000000000000000000000000000004F
:1001B000000000000000000000000000000000003F
:1001C000000000000000000000000000000000002F
:1001D000000000000000000000000000000000001F
:0401E0005FF8E0F1F3
:1001E80010B5054C237833B9044B13B10448AFF369
:1001F80000800123237010BD780B00200000000050
:100208006020010808B5034B1BB103490348AFF34D
:10021800008008BD000000007C0B00206020010861
:1002280081F0004102E000BF83F0004330B54FEA9F
:1002380041044FEA430594EA050F08BF90EA020F0C
:100248001FBF54EA000C55EA020C7FEA645C7FEA9F
:10025800655C00F0E2804FEA5454D4EB5555B8BFC2
:100268006D420CDD2C4480EA020281EA030382EA33
:10027800000083EA010180EA020281EA0303362DC5
:1002880088BF30BD11F0004F4FEA01314FF4801C98
:100298004CEA113102D0404261EB410113F0004FAA
:1002A8004FEA03334CEA133302D0524263EB430361
:1002B80094EA050F00F0A780A4F10104D5F1200EFF
:1002C8000DDB02FA0EFC22FA05F2801841F100015A
:1002D80003FA0EF2801843FA05F359410EE0A5F12E
:1002E80020050EF1200E012A03FA0EFC28BF4CF05F
:1002F800020C43FA05F3C01851EBE37101F0004515
:1003080007D54FF0000EDCF1000C7EEB00006EEB21
:100318000101B1F5801F1BD3B1F5001F0CD34908AB
:100328005FEA30004FEA3C0C04F101044FEA445202
:1003380012F5800F80F09A80BCF1004F08BF5FEA89
:10034800500C50F1000041EB045141EA050130BD69
:100358005FEA4C0C404141EB0101013C28BFB1F57B
:10036800801FE9D291F0000F04BF01460020B1FAC6
:1003780081F308BF2033A3F10B03B3F120020CDA99
:100388000C3208DD02F1140CC2F10C0201FA0CF077
:1003980021FA02F10CE002F11402D8BFC2F1200CDC
:1003A80001FA02F120FA0CFCDCBF41EA0C01904092
:1003B800E41AA2BF01EB0451294330BD6FEA0404DB
:1003C8001F3C1CDA0C340EDC04F11404C4F12002C6
:1003D80020FA04F001FA02F340EA030021FA04F3D8
:1003E80045EA030130BDC4F10C04C4F1200220FA2F
:1003F80002F001FA04F340EA0300294630BD21FA6D
:1004080004F0294630BD94F0000F83F4801306BF32
:1004180081F480110134013D4EE77FEA645C18BF26
:100428007FEA655C29D094EA050F08BF90EA020FBD
:1004380005D054EA000C04BF1946104630BD91EAB5
:10044800030F1EBF0021002030BD5FEA545C05D1B8
:100458004000494128BF41F0004130BD14F58004F7
:100468003CBF01F5801130BD01F0004545F0FE416B
:1004780041F470014FF0000030BD7FEA645C1ABFA0
:10048800194610467FEA655C1CBF0B46024650EAD7
:10049800013406BF52EA033591EA030F41F4002103
:1004A80030BD00BF90F0000F04BF0021704730B589
:1004B8004FF4806404F132044FF000054FF000015E
:1004C80050E700BF90F0000F04BF0021704730B51F
:1004D8004FF4806404F1320410F0004548BF4042F4
:1004E8004FF000013EE700BF42004FEAE2014FEA49
:1004F80031014FEA02701FBF12F07F4393F07F4F24
:1005080081F06051704732F07F4208BF704793F026
:100518007F4F04BF41F40021704730B54FF4607439
:1005280001F0004521F000411CE700BF50EA01023C
:1005380008BF704730B54FF000050AE050EA0102E5
:1005480008BF704730B511F0004502D5404261EB55
:1005580041014FF4806404F132045FEA915C3FF496
:10056800D8AE4FF003025FEADC0C18BF03325FEA33
:10057800DC0C18BF033202EBDC02C2F1200300FAE4
:1005880003FC20FA02F001FA03FE40EA0E0021FA09
:1005980002F11444BDE600BF70B54FF0FF0C4CF4F7
:1005A800E06C1CEA11541DBF1CEA135594EA0C0FA9
:1005B80095EA0C0F00F0DEF82C4481EA030621EAE4
:1005C8004C5123EA4C5350EA013518BF52EA03351F
:1005D80041F4801143F4801338D0A0FB02CE4FF0D1
:1005E8000005E1FB02E506F00042E0FB03E54FF001
:1005F8000006E1FB03569CF0000F18BF4EF0010EF9
:10060800A4F1FF04B6F5007F64F5407404D25FEAF4
:100618004E0E6D4146EB060642EAC62141EA5551A7
:100628004FEAC52040EA5E504FEACE2EB4F1FD0CE9
:1006380088BFBCF5E06F1ED8BEF1004F08BF5FEA67
:10064800500E50F1000041EB045170BD06F0004619
:1006580046EA010140EA020081EA0301B4EB5C04C6
:10066800C2BFD4EB0C0541EA045170BD41F48011BE
:100678004FF0000E013C00F3AB8014F1360FDEBFE3
:10068800002001F0004170BDC4F10004203C35DABF
:100698000C341BDC04F11404C4F1200500FA05F342
:1006A80020FA04F001FA05F240EA020001F00042E3
:1006B80021F0004110EBD37021FA04F642EB060159
:1006C8005EEA430E08BF20EAD37070BDC4F10C0483
:1006D800C4F1200500FA04F320FA05F001FA04F247
:1006E80040EA020001F0004110EBD37041F1000133
:1006F8005EEA430E08BF20EAD37070BDC4F120053E
:1007080000FA05F24EEA020E20FA04F301FA05F2A5
:1007180043EA020321FA04F001F0004121FA04F24D
:1007280020EA020000EBD3705EEA430E08BF20EA1D
:10073800D37070BD94F0000F0FD101F00046400057
:1007480041EB010111F4801F08BF013CF7D041EAD9
:10075800060195F0000F18BF704703F000465200DD
:1007680043EB030313F4801F08BF013DF7D043EAAE
:100778000603704794EA0C0F0CEA135518BF95EA64
:100788000C0F0CD050EA410618BF52EA4306D1D1EB
:1007980081EA030101F000414FF0000070BD50EA0A
:1007A800410606BF1046194652EA430619D094EA94
:1007B8000C0F02D150EA013613D195EA0C0F05D17E
:1007C80052EA03361CBF104619460AD181EA0301D2
:1007D80001F0004141F0FE4141F470014FF000008A
:1007E80070BD41F0FE4141F4780170BD70B54FF025
:1007F800FF0C4CF4E06C1CEA11541DBF1CEA1355A5
:1008080094EA0C0F95EA0C0F00F0A7F8A4EB050486
:1008180081EA030E52EA03354FEA013100F088807D
:100828004FEA03334FF0805545EA131343EA126346
:100838004FEA022245EA111545EA10654FEA0026FB
:100848000EF000419D4208BF964244F1FD0404F5B4
:10085800407402D25B084FEA3202B61A65EB030510
:100868005B084FEA32024FF480104FF4002CB6EBCD
:10087800020E75EB030E22BFB61A754640EA0C004D
:100888005B084FEA3202B6EB020E75EB030E22BF8D
:10089800B61A754640EA5C005B084FEA3202B6EBCE
:1008A800020E75EB030E22BFB61A754640EA9C008D
:1008B8005B084FEA3202B6EB020E75EB030E22BF5D
:1008C800B61A754640EADC0055EA060E18D04FEA1B
:1008D800051545EA16754FEA06164FEAC30343EABB
:1008E80052734FEAC2025FEA1C1CC0D111F4801F88
:1008F8000BD141EA00014FF000004FF0004CB6E781
:1009080011F4801F04BF01430020B4F1FD0C88BF1F
:10091800BCF5E06F3FF6AFAEB5EB030C04BFB6EB2A
:10092800020C5FEA500C50F1000041EB045170BD1D
:100938000EF0004E4EEA113114EB5C04C2BFD4EB4A
:100948000C0541EA045170BD41F480114FF0000ECE
:10095800013C90E645EA060E8DE60CEA135594EA4A
:100968000C0F08BF95EA0C0F3FF43BAF94EA0C0F4D
:100978000AD150EA01347FF434AF95EA0C0F7FF4C2
:1009880025AF104619462CE795EA0C0F06D152EA16
:1009980003353FF4FDAE1046194622E750EA4106FA
:1009A80018BF52EA43067FF4C5AE50EA41047FF40B
:1009B8000DAF52EA43057FF4EBAE12E74FF0FF3C70
:1009C80006E000BF4FF0010C02E000BF4FF0010C41
:1009D8004DF804CD4FEA410C7FEA6C5C4FEA430CBA
:1009E80018BF7FEA6C5C1BD001B050EA410C0CBF09
:1009F80052EA430C91EA030F02BF90EA020F00206B
:100A0800704710F1000F91EA030F58BF994208BFD1
:100A180090422CBFD8176FEAE37040F0010070478E
:100A28004FEA410C7FEA6C5C02D150EA013C07D1E5
:100A38004FEA430C7FEA6C5CD6D152EA033CD3D030
:100A48005DF8040B704700BF8446104662468C462A
:100A58001946634600E000BF01B5FFF7B7FF00285D
:100A680048BF10F1000F01BD4DF808EDFFF7F4FF86
:100A78000CBF012000205DF808FB00BF4DF808ED11
:100A8800FFF7EAFF34BF012000205DF808FB00BF34
:100A98004DF808EDFFF7E0FF94BF012000205DF856
:100AA80008FB00BF4DF808EDFFF7CEFF94BF01200B
:100AB80000205DF808FB00BF4DF808EDFFF7C4FF04
:100AC80034BF012000205DF808FB00BF4FEA410C4D
:100AD8007FEA6C5C02D150EA013C0AD14FEA430C30
:100AE8007FEA6C5C02D152EA033C02D14FF000006D
:100AF80070474FF0010070474FEA410212F50012AB
:100B080015D211D56FF47873B3EB625212D94FEA4C
:100B1800C12343F0004343EA505311F0004F23FA36
:100B280002F018BF404270474FF00000704750EA8B
:100B3800013005D111F0004008BF6FF00040704748
:100B48004FF00000704700BF4A0011D212F50012A2
:100B580011D20DD56FF47873B3EB62520ED44FEA0D
:100B6800C12343F0004343EA505323FA02F070478D
:100B78004FF00000704750EA013002D14FF0FF30CB
:100B880070474FF0000070474FEA4102B2F1E0436E
:100B980024BFB3F5001CDCF1FE5C0DD901F0004C5C
:100BA8004FEAC0024CEA5070B2F1004F40EB8300AC
:100BB80008BF20F00100704711F0804F21D113F1D8
:100BC8003872BCBF01F00040704741F480114FEA11
:100BD8005252C2F11802C2F1200C10FA0CF320FA9A
:100BE80002F018BF40F001004FEAC1234FEAD323B7
:100BF80003FA0CFC40EA0C0023FA02F34FEA430321
:100C0800CCE77FEA625307D150EA01331EBF4FF0A9
:100C1800FE4040F44000704701F0004040F0FE40C4
:100C280040F40000704700BF80F0004002E000BFC1
:100C380081F0004142001FBF5FEA410392EA030FBF
:100C48007FEA226C7FEA236C6AD04FEA1262D2EB09
:100C58001363C1BFD218414048404140B8BF5B420E
:100C6800192B88BF704710F0004F40F4000020F0A7
:100C78007F4018BF404211F0004F41F4000121F0BD
:100C88007F4118BF494292EA030F3FD0A2F1010207
:100C980041FA03FC10EB0C00C3F1200301FA03F145
:100CA80000F0004302D5494260EB4000B0F5000F68
:100CB80013D3B0F1807F06D340084FEA310102F127
:100CC8000102FE2A51D2B1F1004F40EBC25008BFD9
:100CD80020F0010040EA03007047490040EB0000A3
:100CE800013A28BFB0F5000FEDD2B0FA80FCACF1A4
:100CF800080CB2EB0C0200FA0CF0AABF00EBC250D1
:100D080052421843BCBFD0401843704792F0000FBE
:100D180081F4000106BF80F400000132013BB5E711
:100D28004FEA41037FEA226C18BF7FEA236C21D087
:100D380092EA030F04D092F0000F08BF08467047EC
:100D480090EA010F1CBF0020704712F07F4F04D1BA
:100D5800400028BF40F00040704712F100723CBFCD
:100D680000F50000704700F0004343F0FE4040F4F7
:100D7800000070477FEA226216BF08467FEA2363B5
:100D88000146420206BF5FEA412390EA010F40F4A0
:100D9800800070474FF0000304E000BF10F00043EC
:100DA80048BF40425FEA000C08BF704743F09643D3
:100DB80001464FF000001CE050EA010208BF7047EE
:100DC8004FF000030AE000BF50EA010208BF704775
:100DD80011F0004302D5404261EB41015FEA010C8A
:100DE80002BF84460146002043F0B64308BFA3F182
:100DF8008053A3F50003BCFA8CF2083AA3EBC25364
:100E080010DB01FA02FC634400FA02FCC2F1200282
:100E1800BCF1004F20FA02F243EB020008BF20F0B9
:100E28000100704702F1200201FA02FCC2F120021F
:100E380050EA4C0021FA02F243EB020008BF20EA14
:100E4800DC70704753B94AB9002908BF00281CBF95
:100E58004FF0FF314FF0FF3000F0AEB9ADF1080CA4
:100E68006DE904CE00F03EF8DDF804E0DDE9022388
:100E780004B0704738B505460C46002200232846C2
:100E88002146FFF7FBFD28B928462146BDE8384032
:100E980000F00AB8284604F1004100F005F8404285
:100EA80061EB410138BD00BFD0B500220B4B0646AF
:100EB8000F46FFF771FBFFF747FE0446FFF7F2FA0C
:100EC8000022074BFFF768FB02460B4630463946BF
:100ED800FFF7AAF9FFF738FE2146D0BD0000F03D24
:100EE8000000F0412DE9F047089E0D46044688466B
:100EF800002B4DD18A42944668D9B2FA82F252B197
:100F080001FA02F3C2F1200120FA01F10CFA02FC05
:100F180041EA030894404FEA1C41B8FBF1F71FFA75
:100F28008CFE01FB178807FB0EF0230C43EA0843ED
:100F380098420AD91CEB030307F1FF3580F01E81A4
:100F4800984240F21B81023F63441B1AB3FBF1F045
:100F580001FB103300FB0EFEA4B244EA0344A6458D
:100F68000AD91CEB040400F1FF3380F00981A6457F
:100F780040F20681644402380021A4EB0E0440EAE2
:100F880007401EB10023D440C6E90043BDE8F087FE
:100F98008B4208D9002E00F0EE800021C6E900053A
:100FA8000846BDE8F087B3FA83F100294AD1AB427D
:100FB80002D3824200F2FC80841A65EB030301200D
:100FC8009846002EE2D0C6E90048DFE702B9FFDE06
:100FD800B2FA82F2002A40F09180A1EB0C000121C4
:100FE8004FEA1C471FFA8CFEB0FBF7F307FB130010
:100FF800250C45EA00450EFB03F0A84208D91CEB76
:10100800050503F1FF3802D2A84200F2CE8043461C
:101018002D1AB5FBF7F007FB10550EFB00FEA4B226
:1010280044EA0544A64508D91CEB040400F1FF3541
:1010380002D2A64500F2B6802846A4EB0E0440EA88
:1010480003409EE7C1F120078B4022FA07FC4CEAD7
:10105800030C25FA07FA4FEA1C49BAFBF9F820FAFB
:1010680007F309FB18AA8D401FFA8CFE1D4300FAEE
:1010780001F308FB0EF02C0C44EA0A44A04202FAE1
:1010880001F20BD91CEB040408F1FF3A80F08880C8
:10109800A04240F28580A8F102086444241AB4FBF7
:1010A800F9F009FB104400FB0EFEADB245EA04441A
:1010B800A64508D91CEB040400F1FF356CD2A645FF
:1010C8006AD90238644440EA0840A0FB0295A4EBC0
:1010D8000E04AC42C846AE4656D353D0002E69D053
:1010E800B3EB080264EB0E0422FA01F304FA07F7E3
:1010F8001F43CC40C6E90074002147E70CFA02FC04
:10110800C2F1200125FA01F34FEA1C4720FA01F148
:1011180095400D43B3FBF7F107FB11331FFA8CFE23
:10112800280C40EA034001FB0EF3834204FA02F460
:1011380008D91CEB000001F1FF382FD283422DD9CA
:1011480002396044C01AB0FBF7F307FB1300ADB2D5
:1011580045EA004503FB0EF0A84208D91CEB05053B
:1011680003F1FF3816D2A84214D9023B6544281A65
:1011780043EA014138E73146304607E72F46E4E6BF
:101188001846F9E64B45A9D2B9EB020865EB0C0EF7
:101198000138A3E74346EAE7284694E74146D1E702
:1011A800D0467BE76444023847E7023B65442FE7B3
:1011B800084606E73146E9E6704700BF844641EA3B
:1011C800000313F0030349D1403A23D30B680360AB
:1011D8004B6843608B688360CB68C3600B690361AD
:1011E8004B6943618B698361CB69C3610B6A036295
:1011F8004B6A43628B6A8362CB6AC3620B6B03637D
:101208004B6B43638B6B8363CB6BC3634030403161
:10121800403ADBD230320BD30B6803604B68436033
:101228008B688360CB68C36010301031103AF3D2FA
:101238000C3205D351F8043B40F8043B043AF9D288
:10124800043208D0D2071CBF11F8013B00F8013B5B
:1012580001D30B8803806046704700BF082A13D368
:101268008B07B1D010F00303AED0C3F10403D21A38
:10127800DB071CBF11F8013B00F8013BA4D331F890
:10128800023B20F8023B9FE7043AD9D3013A11F810
:10129800013B00F8013BF9D20B7803704B7843709F
:1012A8008B78837060467047002103E00B4B5B58D6
:1012B800435004310A480B4B42189A42F6D30A4A63
:1012C80002E0002342F8043B084B9A42F9D303F0AA
:1012D800B1FB08F0DDFC00F0C1F870478C20010874
:1012E80000000020780B0020780B0020D048002058
:1012F800FEE70000028822B10346002203201A807C
:1013080070472DE9F04FDFF824A18BB09AF801203F
:101318009AF80010464808F0F1FF05F0ADFF454C7B
:10132800454D002005F0C4FF284609F049F805F0AE
:10133800C7FF28B905F0EAFF404809F041F8F0E78F
:101348000921204605F0CCFF002860D06379277A70
:10135800E679A279514609A88DF825308DF82070D4
:101368008DF821608DF8242006F0DCFC0346344813
:10137800002B47D005F0C6FE064610F1FA700F465E
:101388004FF0FF3241F10001FF23FFF75BFD91466B
:10139800984608AAA37851462A4805F003FF48460C
:1013A800414605F0DBFE834632463B462648069119
:1013B80005F0E0FE5A46069B244805F0DBFE0023B4
:1013C80001221921CDE900981E4805F005FF0346C2
:1013D8001F4813B31B4A94F80280537992F8069079
:1013E800079305F0A5FE069BCDE9000105934A4643
:1013F8004146CDE90267079BCDF810B0154808F0C3
:101408007DFF8EE76279A17908F078FF89E705F01A
:101418007DFF114808F0D4FF83E70A4BA1781A46EC
:101428005B79927908F06AFF7BE700BF1C3F0020D8
:1014380088140108940B002098140108A4140108CA
:1014480008150108A00B0020A90B0020B10B0020F3
:10145800EC140108BC140108AC140108F0B589B0FB
:1014680000F0D6F800F028F900F054F900F0A4F8DC
:1014780005F05AFD06F0E4FA0F2006F0EBFA03F047
:101488000BFA4FF47A7005F075FD0F2006F0F0FAAC
:1014980006F0AAFA05F07AFD00F0FEF906F0DCF98C
:1014A8000021404806F0A6F905F09CFF05F0EEFF84
:1014B80006F048FC00F044FC044600F047FC0346F4
:1014C800220A8DF813408DF81220374DBDF81220EE
:1014D800364F2A80220E8DF810201A0E8DF80F3004
:1014E8008DF80C20240C1A0C1B0A4AF6CD31FE6A22
:1014F8008DF80D208DF80E3002208DF81140B04780
:1015080008227B6B03A90B209847BDF81210032013
:1015180049BA89B2B04700F013FC80B206F0C4FBA8
:1015280006F038FB0F2006F0A3FA642005F022FD30
:10153800012006F095FA642005F01CFD022006F053
:101548008FFA642005F016FD042006F089FA64205D
:1015580005F010FD082006F083FA642005F00AFD66
:101568000F2006F07DFA642005F004FD0F2006F038
:101578007FFA642005F0FEFC687814212B780C4A69
:10158800009003A808F05AFF03A800F065F909487D
:1015980005F0D2FE05F008FD06F07AF905F00CFD1D
:1015A800FAE700BF680100201C3F00204C18010822
:1015B8004815010840150108012108B54FF0C05031
:1015C80003F012FD012003F033FE03F0EFFD0120CC
:1015D80003F060FC412003F019FD0028FAD04FF415
:1015E800807003F06BFC012003F070FC03F0B6FD83
:1015F80003F0ACFD0121022003F068FD03F0A6FD15
:10160800002003F07BFDBDE8084003F09FBD00BF4C
:1016180000B587B003F072FB4FF4803003F096FBFF
:1016280003F0B0FB28B901A803F056FC07B05DF839
:1016380004FB102003F0CEFD022003F0C1FD0020C2
:1016480003F000FC002003F011FC4FF4806003F06D
:1016580003FC4FF4004003F013FC302003F0C6FBFA
:101668004FF4C06003F0CCFB012003F0D3FB3B2018
:1016780003F0CCFC0028FAD002214FF4803003F0AC
:10168800A9FB4FF480304FF4E01103F093FB0120E5
:1016980003F09AFB392003F0B9FC0028FAD00220A5
:1016A80003F0BEFB03F0C6FB0828FBD101A803F03A
:1016B80013FC07B05DF804FB00B5012183B07D2061
:1016C80003F086FC4FF6FF72002301A90C48ADF821
:1016D80004208DF8073003F089FA01A9094803F0BE
:1016E80085FA01A9084803F081FA01A9074803F01F
:1016F8007DFA074801A903F079FA03B05DF804FB05
:1017080000080140000C0140001001400014014095
:10171800001801404FF4407003F028BA0C4B1A68C7
:1017280002B1704730B541F203024FF470740125DD
:1017380083B001A907481D60ADF80620ADF8044044
:1017480003F054FA2146034803F0BAFA03B030BD57
:10175800BC0B00200010014010B50446144B15487E
:101768004FF470711C7003F0ABFAE00706D4A107C0
:101778000AD462070ED4230713D410BD40210D48A4
:1017880003F09CFAA107F4D580210A4803F096FAE1
:101798006207F0D54FF48071064803F08FFA2307EB
:1017A800EBD5BDE810404FF40071024803F086BA4B
:1017B800B90B0020001001400B462DE9F041074607
:1017C80090461A1E4FF4006118BF0122204803F00A
:1017D80079FA4FF480511E4803F072FA67B308EBA8
:1017E80007061C4C08F1FF35013E204615F8011F7D
:1017F80003F07AFD0121204603F08AFD0028F9D084
:10180800204603F073FDB542EFD14FF40061104854
:1018180003F056FA4FF480510D4803F04FFA012FA8
:1018280001D0BDE8F08198F800309B07F9D0BDE8F9
:10183800F041022005F09EBB4FF40061044803F01C
:101848003FFABDE8F0414FF48051014803F036BA41
:10185800000C01400038004030B501250223044641
:1018680083B028460DF1070200218DF80730FFF7F5
:10187800A3FF0DF10702002128468DF80750FFF756
:101888009BFF204608F062FE2246294603B0BDE8C9
:101898003040FFF791BF00BF2DE9F047464A8AB0B4
:1018A80002AB07CA03C305A81A7003F003FD0120A1
:1018B8004FF482720223ADF81C00404800274FF411
:1018C80000740546ADF81620ADF81A30302207230B
:1018D8004FF4805841F2030A4FF4406905A9ADF866
:1018E8002430ADF82020ADF81E40ADF81470ADF8E6
:1018F8001870ADF8227005F0A7FB3946284603F0AA
:10190800F9FC2F4801A9ADF80480ADF806A003F052
:101918006DF941462A4803F0D1F9294801A9ADF8E3
:1019280006A0ADF8049003F061F94946244803F095
:10193800C7F90A2005F01EFB3A464FF4006120481B
:1019480003F0C0F941461E4803F0BAF9392102AC48
:1019580004AE284603F0C8FC0121184803F0D8FC5F
:101968000028F9D0284603F0C1FCB44202D014F88C
:10197800011FEEE74FF40061114803F0A1F94FF49D
:1019880080510F4803F09AF90A2005F0F3FA022370
:101998000DF10302002101208DF80330FFF70CFF41
:1019A800012000210DF103028DF80300FFF704FF69
:1019B8000AB0BDE8F08700BF5415010800380040A0
:1019C800000C014010B50E4CA37A2BB9BDE81040AD
:1019D8004FF4802003F074BB4FF0E022D2F8103DA2
:1019E80023F00603C2F8103D03F024F8204604F063
:1019F80049FEBDE810404FF4802003F061BB00BFF2
:101A0800F00C0020014804F04DBE00BFF00C00208F
:101A180070B5094D04462E6856B103F0A3F82B683B
:101A2800234483428CBF4FF0FF362B60304670BD95
:101A3800024B1E462B60F0E7C00B0020D048002068
:101A480010B508461146144602F0E0FE00280CBF07
:101A58002046002010BD00BF0020704700207047BE
:101A680000207047002070470120704738B5074DA7
:101A7800074C2B6898472021204603F019F90128C4
:101A8800F7D0BDE83840202003F01ABBC40B002073
:101A9800000C0140074B1B689B0608D54FF4000259
:101AA800054B0649C3F8802008601A607047034B4D
:101AB800186070470004014000E100E0C40B0020FA
:101AC80030B51B4C9C46246814F0200404D04FF415
:101AD8000005184BC3F8805001EB000E1020164B80
:101AE800714558610AD003F5205311F8010B98810C
:101AF8001889C007FCD58E459889F6D10CEB0200F1
:101B080084450CD04FF0FF0E0C49A1F80CE00A896F
:101B1800D307FCD58B890CF8013B6045F5D1102221
:101B2800054B1A611CB14FF40002024B1A6030BD1C
:101B38000004014000E100E00008014000300140DD
:101B480030B51A4C9C46246814F0200404D04FF495
:101B58000005174BC3F8805001EB000E1020154B01
:101B6800714558610AD003F5205311F8010B98818B
:101B78001889C007FCD58E459889F6D10CEB020070
:101B8800844509D00C491CF8013B8B810A89D3078D
:101B9800FCD560458B89F6D11022064B1A611CB121
:101BA8004FF40002024B1A6030BD00BF0004014030
:101BB80000E100E0000801400030014070B5012458
:101BC80003260F4D82B0284601A9ADF80440ADF8B0
:101BD800066003F00BF82146284603F071F820460A
:101BE80005F0D2F9284601A9ADF80440ADF8066021
:101BF80002F0FCFF022005F0BDF902B070BD00BF85
:101C080000080140002100B5ADF5177D4FF41672AC
:101C18006B46084600F0F8F90DF5177D5DF804FBF2
:101C280030B54FF4007C4FF4827E00242022072335
:101C38008BB03D4805A9ADF816E0ADF81EC0ADF86B
:101C48002020ADF82430ADF81440ADF81840ADF8B8
:101C58001A40ADF81C40ADF8224005F0F5F92146D0
:101C6800314803F047FB102541F203032F4801A92F
:101C7800ADF80630ADF8045002F0B8FF29462B48FD
:101C880003F01CF803230122284801A9ADF8063007
:101C9800ADF8042002F0AAFFFFF790FF00F00CFA5D
:101CA800234B984209D0234808F08AFBFFF7AAFF84
:101CB800052005F05FF9FFF781FFF12001F028FA10
:101CC80001302CD00821184805F014FA01242823E3
:101CD800202501A918488DF80730ADF8045002F006
:101CE80085FF0521204602F0F3FF4FF4006303A8A7
:101CF800ADF8103003958DF8124003F0A1F91721C3
:101D08000F22002302A88DF80B408DF808108DF8DB
:101D180009208DF80A3002F033FF0BB030BD0748B8
:101D2800FFF79AFDFEE700BF0030014000080140C0
:101D38003001CADE60150108000C01407015010869
:101D4800014B1B681868704710000020014B1B6886
:101D5800586870471000002010B54FF00B0C04466F
:101D68004FF0EA0E82B08DF805C094F800C06B46BB
:101D780001A9012202208DF804E08DF800C0FFF7C8
:101D8800DFFE4FF09E0C62686946100A8DF8050068
:101D9800100E8DF80420140C8DF807000422012081
:101DA80001AB8DF806408DF800C0FFF7C9FE02B000
:101DB80010BD00BF30B584464FF0300EEE258424A8
:101DC80083B08DF806E002224FEA1C2E6B460320F2
:101DD80001A98DF804508DF805408DF801E08DF8C3
:101DE80000C0FFF7ADFE03B030BD00BF00B58446AC
:101DF8004FF0980E83B08DF804E002224FEA1C2EB3
:101E080001206B4601A98DF801E08DF800C0FFF7AD
:101E180097FE03B05DF804FB10B514460244B2F512
:101E2800806F82B01EDC0B46821E6CB1C9217F2CEC
:101E38008DF804100DD802208DF8054001A9FFF790
:101E48007FFE002002B010BD892101208DF804100A
:101E5800F4E764F07F01E40903208DF805108DF89C
:101E68000640EBE74FF0FF30ECE700BF944670B553
:101E780006460D4604224FF0880E114B82B01B68AF
:101E88000120DC68694644EACC3C4CEA060C4CEA82
:101E9800855C4FEA1C248DF804C08DF805400DEBD5
:101EA80002034FEA1C444FEA1C6C8DF800E08DF8E1
:101EB80006408DF807C0FFF743FE02B070BD00BFB3
:101EC80010000020944600B503460A4683B0BCF1D2
:101ED800000F09D1112101208DF8041001A9FFF785
:101EE800EFFD03B05DF804FB5121BCF17F0F8DF8C5
:101EF800041008D8022001A98DF805C0FFF7E0FDFD
:101F080003B05DF804FB6CF07F018DF805104FEA13
:101F1800DC1C032001A98DF806C0FFF7D1FD03B032
:101F28005DF804FB00B54FF0280C4FF0670E83B046
:101F38006B460322022001A98DF804E08DF805C044
:101F4800FFF7BEFD9DF802209DF801309DF80000C6
:101F580003EB022300EB0320DB0446BF6FEA0030EB
:101F68006FEA1030C0F3140003B05DF804FB00BF43
:101F78004FF0170C00B583B003460522012001A9D4
:101F88008DF804C0FFF79CFD03B05DF804FB00BFAB
:101F98004FF0150C00B583B003460522012001A9B6
:101FA8008DF804C0FFF78CFD03B05DF804FB00BF9B
:101FB80000B583B051B960F07F018DF8041001209D
:101FC80001A9FFF7BDFD03B05DF804FB60F03F0019
:101FD8007F298DF8040008D88DF80510022001A982
:101FE800FFF7AEFD03B05DF804FB61F07F0CC90993
:101FF8008DF80610032001A98DF805C0FFF7A0FD94
:1020080003B05DF804FB00BF00B5844683B041B956
:10201800012001A98DF804C0FFF752FD03B05DF857
:1020280004FB40F040007F298DF8040008D88DF8A3
:102038000510022001A9FFF743FD03B05DF804FB7A
:1020480061F07F0CC9098DF80610032001A98DF8ED
:1020580005C0FFF735FD03B05DF804FB10B58AB283
:10206800034682B0AAB901208DF8003001AC0422E1
:1020780023466946FFF724FD00200DF1070292F878
:1020880000C0A2420CEB002002F1FF32F7D102B0EF
:1020980010BD40F040037F2A8DF8003003D802209D
:1020A8008DF80110E2E761F07F01D20903208DF875
:1020B80001108DF80220D9E700210846FFF7CEBFAE
:1020C80000211720FFF7CABF00211520FFF7C6BF60
:1020D80000B58AB2034683B08AB901208DF804306E
:1020E8006B46022201A9FFF7EBFC9DF801309DF831
:1020F800000000EB032080B203B05DF804FB40F061
:1021080040037F2A8DF8043003D802208DF805108B
:10211800E6E761F07F01D20903208DF805108DF8FC
:102128000620DDE7022270B54FF0050C552604465F
:102138002E2582B06B46104601A98DF805C08DF892
:102148000460FFF7BDFC9DF801209DF8003001A94F
:1021580003EB0223E38102226B4601208DF8045031
:10216800FFF7AEFC122223469DF801108DF80420DB
:102178009DF80020012002EB012223F8042B01A97D
:102188000822FFF79DFC022207206B4601A98DF863
:10219800050010468DF80460FFF792FC9DF80120B9
:1021A8009DF80030002103EB022363801020FFF725
:1021B80055FF03461B0DA3812C212720FFF788FF1D
:1021C8006E2220828DF80420202080226B4601A9EF
:1021D8008DF806008DF8052003200222FFF770FC19
:1021E8009DF801209DF8003041F2020103EB022323
:1021F80028466382FFF76CFFA08202B070BD00BF63
:1022080000B58BB285B08DF807206BB960F07F03FD
:1022180001208DF80C3001220DF1070303A9FFF707
:102228008FFC05B05DF804FB60F03F007F2B8DF854
:102238000C0003D802208DF80D10ECE761F07F0147
:10224800DB0903208DF80D108DF80E30E3E700BF91
:1022580000B54FEA122C83B08BB28DF800208DF8B0
:1022680001C063B960F07F0301208DF804300222B9
:102278006B4601A9FFF764FC03B05DF804FB60F04E
:102288003F007F2B8DF8040003D802208DF805103D
:10229800EDE761F07F01DB0903208DF805108DF86B
:1022A8000630E4E700B54FEA122C83B08DF804201D
:1022B8008DF805C08BB24FEA124C120E8DF806C08D
:1022C8008DF807206BB960F07F0301208DF800308E
:1022D800042269460DEB0203FFF732FC03B05DF8F8
:1022E80004FB60F03F007F2B8DF8000003D802202C
:1022F8008DF80110ECE761F07F01DB0903208DF810
:1023080001108DF80230E3E710B5044682B00021D1
:102318000420FFF7A3FE0CB3124A04F4FF73024033
:10232800134343F00104220A8DF8052004224FF0DC
:10233800840C0D498DF804400868210C04618DF85F
:10234800061001206946240E0DEB02038DF80740A4
:102358008DF800C0FFF7F4FB02B010BD034C044039
:10236800E1E700BF01FE47F010000020FEFF47F044
:1023780000B5844602224FF0C30E83B08DF804E006
:102388006B464FEA1C2E104601A98DF805208DF8E2
:1023980001E08DF800C0FFF7D3FB03B05DF804FB44
:1023A80000B584464FF0830E83B08DF804E0022216
:1023B8004FEA1C2E01206B4601A98DF801E08DF82B
:1023C80000C0FFF7BDFB03B05DF804FB4FF0810CC4
:1023D80000B583B003460822012001A98DF804C086
:1023E800FFF7AEFB03B05DF804FB00BF0346012016
:1023F80000B583B0082201A98DF80400FFF760FB3F
:1024080003B05DF804FB00BF30B584464FF0040EFE
:102418000222ED2483B00DEB0E016B4610468DF8B9
:1024280005E04FEA1C2E8DF801E006258DF800C066
:102438008DF80440FFF784FB4FF0030C6B4601A9AD
:10244800012202208DF800C08DF804408DF8055057
:10245800FFF776FB4FF0000C01A96B460220012222
:102468008DF804408DF805508DF800C0FFF768FB23
:102478000A212D2003B0BDE83040FFF7EFBD00BFB3
:10248800844630B54FF0AC0E134B83B01B680C4636
:10249800DD8A01A94CEA050C6B468DF800C00222C2
:1024A8004FEA1C2C01208DF804E08DF801C0FFF7DD
:1024B80047FB4FF0EC0E4FF0060C6B460122022052
:1024C80001A98DF800408DF804E08DF805C0FFF7EC
:1024D80037FB03B030BD00BF1000002070B54FF0CF
:1024E800100CEE264FF06D0E8625044682B06B4622
:1024F80001A9012203208DF806C08DF804608DF82B
:1025080000E08DF80550FFF71BFB8DF804604FF0D5
:10251800070C6B46302601A98DF8055064B10624D6
:10252800022203208DF800C08DF806608DF8014066
:10253800FFF706FB02B070BD1624F1E72DE9F04F56
:102548000678C44B042E1CBFA6F10708B8FA88F811
:102558004279477833F81290C37907F1FF37044678
:1025680008BF4FF0010883B0FFB218BF4FEA5818F0
:10257800002B40F04481B84D4FEAD9092868026918
:1025880042F480010161237A21F440311A0402F4F3
:1025980040320A438372026100210420FFF782FE61
:1025A800EE238DF8043084238DF805305023022261
:1025B80001A903208DF800908DF806304FEA1929FB
:1025C8006B468DF80190FFF7BBFA3846FFF786FF98
:1025D800A24B072113F806B0A14B2B2053F82B2050
:1025E800FFF760FEEB234FF00B098DF804309D4B8D
:1025F800012213F80B3002208DF8003001A96B4638
:102608008DF80590FFF79CFAE8238DF805904FF0B8
:1026180002094FF0E70A8DF80430934B012213F8B2
:10262800083048468DF8003001A96B46FFF788FA54
:102638008E4B0C2153F82B202820FFF733FEE2792C
:10264800A379484603EB4203894A01A932F81330BB
:102658004A468DF800301B0A8DF801306B468DF81C
:1026680005908DF804A0FFF76BFA04238DF8053068
:10267800804B4A4633F8173048468DF800301B0A1D
:102688008DF8013001A96B468DF804A0FFF758FAC0
:10269800E379002B00F0CD80A3788DF804A0042BFB
:1026A80000F0918020238DF8003000238DF8013050
:1026B800062348468DF805304A466B4601A9FFF7C0
:1026C8003FFA282348468DF804A08DF800302623C9
:1026D80001228DF8053001A96B46FFF731FAE3783E
:1026E800654A03EB870352F8232008212720FFF7C8
:1026F800D9FD6389002B7CD0DAB21B0A8DF8013032
:10270800E7238DF800208DF8043002222023DFF81B
:102718006C8110468DF8053001A96B46FFF710FA59
:1027280008EB47070C212320D8F80020FFF7BAFD53
:10273800BB8802228DF800301B0A8DF80130E32394
:102748008DF80430042310468DF8053001A96B4636
:10275800FFF7F6F9A079002858D10246637894F873
:1027680005C021799B0403F4402706F00F0343EAD0
:10277800CC63890501F0F8613B4336010B43F6B29F
:10278800334303431A4300211F20FFF78BFDA27830
:10279800637829681343E2790820520342EA034226
:1027A800CA600021FFF77EFD01228D2042248DF8AA
:1027B80004006B46104601A98DF80040FFF7C0F9E8
:1027C80003B0BDE8F08F00238DF8013006234FF0E9
:1027D800100848468DF805304A466B4601A98DF821
:1027E8000080FFF7ADF948468DF800808DF804A009
:1027F8006DE741F241034122638110237EE7164DC4
:102808002868026922F480010161BCE6A123012243
:102818001B498DF80430E3791046CB5C01A98DF88B
:1028280000306B46FFF78CF94FF400304FF440123C
:1028380094E78DF8013064238DF8003006234A466A
:102848008DF8053048466B4601A98DF804A0FFF7BE
:1028580077F944E7D4150108100000208415010811
:10286800B4150108CC150108081601081816010846
:102878000C160108AC1501088C1501087C15010817
:10288800B015010870B50E4D0446002104202E68CD
:10289800FFF7E4FB2B6830611A6944B1BDE870406A
:1028A80022F48022002104201A61FFF7FBBC42F4C5
:1028B80080220021BDE8704004201A61FFF7F2BCB5
:1028C8001000002010B5002182B004461A20FFF73E
:1028D800C5FB844604224FF09A0E4FEA1C5CC4F3F1
:1028E80013044FEA0C5C44EA0C0C4FEA1C248DF8E4
:1028F80004C08DF8054001204FEA1C4469464FEAA0
:102908001C6C0DEB02038DF800E08DF806408DF885
:1029180007C0FFF715F902B010BD00BF10B4044C92
:102928002468C4E90A01C4E90C2310BC704700BF3D
:102938001000002038B510F0010527D0044600210A
:102948002620FFF78BFB024622F4705242F4A05275
:1029580000212620FFF7A6FC00213620FFF77EFB8A
:1029680002460021362042F40402FFF79BFCA3072D
:1029780004D5282136200C4AFFF794FCBDE83840DE
:102988004FF4887228213620FFF78CBC2946262070
:10299800FFF764FB02462946BDE83840262022F4AA
:1029A8007052FFF77FBC00BF10010F0010B54FF049
:1029B800360C044682B06B460222012001A98DF82C
:1029C80004C0FFF77DF80E2C12D8DFE804F02F08BA
:1029D8003811111111415011115D646B280000224A
:1029E8009DF801308DF8002023F001038DF80130A7
:1029F8000122B6206B4601A98DF804001046FFF7A6
:102A08009FF80122F624022001A90DEB02038DF89C
:102A180005208DF80440FFF793F802B010BD01229D
:102A280003238DF800208DF80130E1E79DF8003090
:102A380023F0030343F001038DF80030D8E79DF835
:102A4800003023F0030343F002038DF80030CFE792
:102A58009DF800309DF8012023F04C0343F0480313
:102A680062F07F028DF800308DF80120C0E79DF8F4
:102A780000209DF8013022F04C0203F07F038DF80E
:102A880000208DF80130B3E79DF8013043F00203D0
:102A98008DF80130ACE79DF8013023F002038DF882
:102AA8000130A5E79DF8003023F0300343F0200300
:102AB8008DF800309CE700BF70B51446064682B01A
:102AC80007200D46FFF772FF74B9252301208DF802
:102AD800043033462A4601A9FEF7F2FF082002B067
:102AE800BDE87040FFF762BF65237F2C8DF8043086
:102AF80003D802208DF80540EBE764F07F03E40972
:102B080003208DF805308DF80640E2E710B58446BD
:102B18004FF0010E0422CA2482B08DF801E04FEA7A
:102B28001C2E8DF805E08DF804C04FEA1C4E0220DB
:102B38004FEA1C6C69460DEB02038DF800408DF8D6
:102B480006E08DF807C0FEF7FBFF02B010BD00BF1E
:102B580010B510F0020382B004D0012180231F4A6F
:102B68001268517510F001044FF0010215D08D2440
:102B780043F0060310468DF8033001A90DF1030355
:102B88008DF80440FEF7DCFF03210F20FFF7A0FAC1
:102B980010F4816011D102B010BD8D2043F0020104
:102BA8008DF803108DF804000DF10303104601A9F8
:102BB800FEF7C6FF204602B010BD01224FF0400CC0
:102BC80010460DF1030301A98DF804408DF803C0E8
:102BD800FEF7B6FF4FF0FF30DDE700BF1000002022
:102BE80010B503244FF04F0C82B00DEB0403012203
:102BF800022001A98DF804C08DF80540FEF760FF9A
:102C08009DF8033083EA43031B0601D402B010BDCC
:102C180001224FF0CD0C02200DEB040301A98DF821
:102C280005408DF803208DF804C0FEF789FF02B037
:102C380010BD00BF70B500210E2082B0FFF70EFA5C
:102C4800274B05461C6814F0200429D000224FF4B5
:102C58000006244C11460E20C4F88060FFF722FBC2
:102C6800012240238D2110468DF804108DF8033081
:102C780001A90DF10303FEF763FF00210F201A4A93
:102C8800FFF710FBFFF7ACFF2A4600210E20FFF7E5
:102C980009FB26600022154B1B685A7502B070BDEF
:102CA800224621460E20FFF7FDFA01228D204026FC
:102CB8000DF1030301A98DF8040010468DF8036097
:102CC800FEF73EFF21460F20074AFFF7EBFAFFF712
:102CD80087FF2A4621460E20FFF7E4FADAE700BF0D
:102CE8000004014000E100E0F8FF27241000002064
:102CF80030B54307044683B037D514F0010524D016
:102D080003254FF0000E4FF08D0C6B460222012078
:102D180001A98DF801508DF800E08DF804C0FEF788
:102D28000FFF4FF04F0C6B460122022001A98DF8CE
:102D380005508DF804C0FEF7C3FE9DF8005015F04D
:102D4800080515D1284603B030BD01208D24022284
:102D58006B4601A98DF801008DF800508DF80440EC
:102D6800FEF7EEFE284603B030BDFFF739FFC4E793
:102D7800FFF760FF14F0020102D04FF0FF35E1E7E2
:102D8800012402220D2001AB4FF0FF358DF804100D
:102D98008DF80540FFF70CF9D4E700BF70B544255E
:102DA8000446032682B06B460122022001A98DF851
:102DB80004508DF80560FEF783FE9DF8005024B39B
:102DC8008DF80040240A8DF801408C246B460222BD
:102DD800012001A98DF80440FEF7B2FE104BC4246F
:102DE80018686B46026945F0100501A942F0805247
:102DF8000261012202208DF800508DF805608DF8DF
:102E08000440FEF79DFE02B070BD054BC42418684F
:102E180025F0100502696B4601A922F08052E7E708
:102E280010000020144B70B51C68064614F02004EE
:102E38000D4604D04FF40002104BC3F88020022D39
:102E480013D000210E20FFF709F9012D0CBF40EA2D
:102E5800060220EA060200210E20FFF723FA1CB121
:102E68004FF40002054B1A6070BD324600210E2057
:102E7800FFF718FAF3E700BF0004014000E100E0A3
:102E880030B50324F6254FF0E00C83B00DEB0403B6
:102E980001A9012202208DF803C08DF804508DF895
:102EA8000540FEF74DFE4FF0F00C012202200DEB1D
:102EB800040301A98DF804508DF805408DF803C06E
:102EC800FEF73EFE03B030BD70B5564E00210F2010
:102ED80082B03568FFF7C2F8E8614504044609D4B2
:102EE80022064DD414F4081F61D14F4A144274D1FC
:102EF80002B070BD4FF4DE4200210F20FFF7D2F977
:102F080000213368102083F82410FFF7E1F83368B4
:102F18009A7A002A76D0C0F3090200041A8405D5EB
:102F280093F8242042F0010283F82420112501207F
:102F380001A9022222338DF80450FEF7C1FD2107B2
:102F4800306804D590F8221011F020055DD0C36ACE
:102F580013B11C3098473068037D002BC0D0CD23B7
:102F6800032001228DF805008DF80430022001A904
:102F78000DF103038DF80320FEF7E2FD2206B1D51B
:102F88000F20F8220021FFF78DF92307306806D5B6
:102F9800437D23B1FFF74EFEFFF772FF3068836A67
:102FA800002B9FD01C30984714F4081F9DD00F2089
:102FB80000214FF40032FFF775F9002233685A7583
:102FC800FFF738FEFFF75CFF3068036B002B8CD0EF
:102FD8001C309847144A14428AD00F200021FFF76A
:102FE80061F9002233685A75FFF724FEFFF748FF9E
:102FF8003068436B002B3FF47BAF1C3002B0BDE858
:103008007040184700F07F0287E70F200822294602
:10301800FFF748F93068C369457523F00803C361B1
:1030280095E700BF10000020009005242DE9F0412D
:10303800002082B0FFF7BAFC022204200024F62602
:103048000DEB00016B468DF80500104615468DF80E
:1030580000408DF801408DF80460FEF771FDAC2347
:103068002A468DF8043001A96B4601208DF80040EE
:103078008DF80140FEF764FD0623EC274FF00308A6
:1030880028468DF8053001A96B4601228DF80040CD
:103098008DF80470FEF754FD6B46284601A90122FD
:1030A8008DF805508DF800408DF80470FEF748FD46
:1030B8006B46284601A901228DF800508DF805506D
:1030C8008DF80470FEF73CFD6B4601A901222846E5
:1030D8008DF800408DF804608DF80580FEF730FD0E
:1030E800012003F047FF2846F0256B46012201A97D
:1030F8008DF804608DF805808DF80050FEF720FDEE
:10310800024B1B685C7502B0BDE8F081100000201E
:1031180000212DE9F043A04D04462B680846C3E979
:103128000A11C3E90C11596183B0FEF797FF9B4B55
:10313800984240F02E8114F0020800F08F8014F0BD
:10314800F80000F005814FF0040C0122A4206F461E
:103158000DEB0C063B4631468DF8040010468DF801
:1031680000C0FEF7EDFC30212820FEF777FFB0F114
:10317800883F04D02A68D38A43F48053D38204F06A
:103188000A030A2B00F0FB800023D5F8009089F889
:103198000B3014F0100340F09A80C9F8003014F096
:1031A800200340F09F80C9F8043014F0400340F039
:1031B800A2802A68137214F0800340F0A5802A6860
:1031C8005372B8F1000F40F0A880E10740F1AE80DB
:1031D8000E20FFF7EBFB02228023ED210624104688
:1031E8008DF804108DF8013031463B468DF800808B
:1031F8008DF80540FEF7A4FC012003F0BBFE01207A
:10320800FFF7D4FB2A68D38A43F40063D3820120F2
:10321800FFF7CCFBEC220A2000243B4631468DF810
:1032280005008DF80420022001228DF80040FEF7E9
:1032380087FC214604202E68FEF710FF03462D6800
:1032480033616B8A214603F003030820AB72FEF753
:1032580005FFE860204603B0BDE8F083FFF7E6FE0F
:103268004FF004094046FFF7A1FB6F460122A42056
:103278000DEB09063B4631468DF8040010468DF8E3
:103288000090FEF75DFC4846FFF7BEF8C0B2002884
:1032980061D11E20FFF7B8F82B68C0F30722DA7255
:1032A800C30650D17020EB238DF804300E238DF81F
:1032B80000008DF8053001223B4631460220FEF71A
:1032C8003FFC14F01003D5F800903FF466AF0620D9
:1032D800FFF79AF814F02003C9F80000D5F8009019
:1032E8003FF461AF0720FFF78FF814F04003C9F8E7
:1032F80004003FF45EAF0820FFF786F82B681872C9
:1033080014F080033FF45BAF0920FFF77DF82B68CA
:103318005872B8F1000F3FF458AF62073FF577AF26
:103328002A68D38A43F40063D38270E705213620E4
:10333800FEF7CEFE024622F400720521362092B234
:10334800FEF786FF63E700F01F0040F06000AAE781
:10335800FFF72CFBF7E6ED238DF80430122302204B
:1033680001228DF8053031463B468DF80000FEF706
:10337800E7FB2A68D38A43F48053D38289E71E2067
:10338800FFF742F8D5F80090C0F3072089F80B0042
:10339800FFE64FF0FF345DE7100000203001CADE81
:1033A80038B5044608461546FDF79EF80022584BE6
:1033B800FDF7F2F8FDF7A0FBFF28A8BFFF20012DBD
:1033C80040D0042C1FD0072C1DD01A21514B524A33
:1033D8001B5D01FB03F3D15C1A4488427CDD0023AA
:1033E80012F8011F1C46814203F10103F8DBA4F126
:1033F8001000FDF7D3FCFDF777F83BA3D3E90023D2
:10340800FDF7CAF838BD454B454A1B5DC3EB0311B0
:10341800C3EB8103D15C1A44884259DD002312F8BA
:10342800011F1C46814203F10103F8DBA4F11D00D2
:10343800FDF7B4FCFDF758F82BA3D3E90023FDF7FB
:10344800ABF838BD042C20D0072C1ED0314B354AA0
:103458001B5D03EBC30103EB8103D15C1A4481427A
:1034680032DA002312F8011F1C46814203F10103DE
:10347800F8DBA4F11600FDF791FCFDF735F81AA367
:10348800D3E90023FDF788F838BD244B264A1B5D95
:1034980003EB031312F823409900A04220DD002318
:1034A8000A4412F8011F1C46814203F10103F8DBAC
:1034B800A4F11B00FDF772FCFDF716F80AA3D3E987
:1034C8000023FDF769F838BD09A1D1E9000138BD2D
:1034D80009A1D1E9000138BD09A1D1E9000138BD30
:1034E80009A1D1E9000138BD7B14AE47E17A843FD8
:1034F800713D0AD7A370CDBF333333333333D3BFD2
:10350800C3F5285C8FC2C5BFEC51B81E85EBD1BF8F
:1035180000001040301601085C1701083816010831
:10352800C417010840160108D4160108014B187881
:10353800704700BF110C0020014B1878704700BF7E
:10354800050C0020034B1B78002B0CBF0120032027
:10355800704700BF040C002010B50024FEF760FB84
:1035680000F0DAFF01F080F80120FFF7E3F90E4BD5
:103578000E481C70FEF78EFA0D4B0E4A0E490F4886
:10358800FFF7CCF901210E48FFF74CFC00F024FCB2
:103598004FF4A0700521FEF773FF2146094804F097
:1035A80029F9204610BD00BF000C0020D12E0008CC
:1035B8001D3900084D3900087D380008E138000839
:1035C80080D0232414000020084B70B51D785DB905
:1035D800074E33780BB9184670BD0C462A46FEF7DD
:1035E80071FC2046357070BD002070BD040C0020B1
:1035F800050C0020064B10B51C783CB92046FFF797
:10360800CDFB2046FFF774FB204610BD032010BDFC
:10361800040C0020104B1B78CBB90B2801D00120DB
:103628007047082A15D1A1B100B583B001F108038C
:103638000DF1FF3213F8010D8B4202F8010FF9D199
:103648006846FEF7C3FE002003B05DF804FB0320C4
:1036580070470220704700BF040C0020124B1B78F3
:10366800DBB90B2801D001207047082A17D100B513
:1036780085B00191A9B102A8FEF7B8FE01990DF134
:103688000F024B1E073112F8010903F8010F8B4294
:10369800F9D1002005B05DF804FB03207047022033
:1036A80070470220F6E700BF040C002038B5134B22
:1036B8001C783CB903280CD004280FD0022803D06A
:1036C800012038BD032038BD88B2FEF751FE2046E0
:1036D80038BD88B2FEF764FE204638BD11F00105FA
:1036E80004D03E20FEF710FE204638BD2846FEF7DF
:1036F8000BFE034B28461D7038BD00BF040C00208C
:10370800000C00200F4B70B51D7885B90E4B1C6856
:1037180014F020040DD04FF400060C4CC4F880605F
:1037280000F076FEFFF786FA094B1D702660002030
:1037380070BD00F06DFEFFF77DFA054B00201C7090
:1037480070BD00BF040C00200004014000E100E04F
:10375800110C002008B5074B1B780BB1002008BDE1
:1037680000F04EFE0028F9D1034B187880F00100D4
:1037780008BD00BF040C0020110C0020244B1B784E
:10378800ABB9244B1B7893B1F0B5234B83B01B68BE
:103798009B060ED54FF40007204EC6F8807000F047
:1037A8002FFE054628B30120376003B0F0BD012085
:1037B800704700F025FE054610B1012003B0F0BDAA
:1037C800FFF738FA2846FFF77DF8154C154B02200D
:1037D80025701D70FFF7BCF901900028EDD103F0AA
:1037E800EBFB23780198002BE8D12378002BFCD041
:1037F800E4E7FFF71FFA2846FFF764F8084C094B7F
:10380800022025701D70FFF7A3F93760E4E700BFB9
:10381800040C0020060C00200004014000E100E038
:10382800100C0020110C0020F8B5104B1B780BB1C0
:103838000120F8BD0E4F06460D463B7000F0E0FD36
:1038480004460028F4D102352A06EBB2F0D49DB222
:10385800024631462846FEF7DFFA28462246214628
:10386800FEF704FB012320463B70F8BD040C002042
:10387800060C002038B5037ADA071CD4044600F099
:10388800C7FD0121A3880E480E4D023B22682B80FC
:103898000D4C0E4B00782260197020B1130702D529
:1038A8000B4B197038BD0022094B0A481A70BDE845
:1038B800384004F08BB8BDE8384000F09BBA00BF30
:1038C800000C0020020C0020080C0020050C002031
:1038D800110C00201400002010B500F073FD4FF00B
:1038E800010C0022074B084C0848197884F800C0DE
:1038F800027001B910BD0648BDE810401A7004F006
:1039080065B800BF110C0020100C0020060C002028
:103918001400002038B5044600F07AFD074A084B29
:10392800157822681A603DB92846FFF737FA284605
:10393800BDE83840FFF7DCB938BD00BF040C0020F3
:10394800080C002038B5044600F062FD084A094B0F
:10395800157822681A602DB92846FFF71FFA2846FD
:10396800FFF7C6F9BDE83840012004F08BB800BF66
:10397800040C0020080C0020154B1B780BB101200B
:1039880070472DE9F041DFF84C8004460D4688F871
:10399800003000F035FD0646B0B9AB1CDFB21B069F
:1039A80012D4BFB2214602463846FEF735FA3846E9
:1039B80032463146FEF75AFA0123284688F8003085
:1039C800BDE8F041FFF7DABE0120BDE8F08100BF95
:1039D800040C0020060C002003882DE9F041044661
:1039E800002B2FD040F22622934231D1822902D0D7
:1039F8000120BDE8F081274D2B78002B44D0264EBE
:103A08003388802B33D8254F04F0B8F904F0B2FA84
:103A180097F800803188B8F1000F1ED0084604F0EE
:103A2800A3FA1F4B1F4E1B683D7833602DB92846FB
:103A3800FFF7B4F92846FFF75BF91B4B1B6998475A
:103A48000023336040F2262301202380BDE8F08163
:103A5800002303202380BDE8F0812B78002BDDD0E4
:103A68004246FEF72FFA318885F80080D6E7002213
:103A78000A4B2A701B78002BE4D10020FFF78EF93F
:103A88000020FFF735F9DDE7044B1B78002BF4D055
:103A9800D8E700BF050C0020020C0020040C002011
:103AA800080C00200C0C0020001C0108000000007D
:103AB8002DE9F04F0388044687B04BB140F26932D4
:103AC800934210D1822914D0012007B0BDE8F08FAD
:103AD800A74D2B78002B34D040F269330120238086
:103AE80007B0BDE8F08F00230320238007B0BDE8AE
:103AF800F08FA04B1B6813F0200A04D04FF400028B
:103B08009D4BC3F880209D4D2978072924D0002299
:103B18009B4B1A609A80092917D10023994A2B7068
:103B280010681360BAF1000F03D04FF40002924BF3
:103B38001A600028D0D08E4B914A197803F03AFFCA
:103B4800CAE703F04FFE2870C6E70020FFF726F902
:103B58000020FFF7CDF8E0E7FEF7E4F980468A4851
:103B680000F0F6FD06460F464046FCF7ABFC3B4628
:103B78003246FCF711FD06460F46844BDFF810B2BB
:103B88001B78CBE90067002B40F08580814B1868D3
:103B9800814B1B68C01AFCF795FC804B804618685F
:103BA8007F4B89461B68C01AFCF78CFC02460B4603
:103BB8003046394616461F4667A3D3E90023FCF76B
:103BC80015FE02460B4600207649FCF72DFB0246FF
:103BD8000B4630463946FCF7DFFC02460B464046AA
:103BE8004946FCF721FB00226F4BFCF7D5FC5CA390
:103BF800D3E90023FCF7D0FC5BA3D3E90023FCF74F
:103C0800CBFC0F460646DFF88091DFF8748199F8FF
:103C18000120C8E904670092FCF7B6FF009A014644
:103C280099F80000FFF7BCFB02460B4630463946C0
:103C3800FCF7FAFA0123C8F800300023C8E90201AA
:103C48002978A8F804300729DBE90023C8E9062306
:103C58007FF461AF554E3378002B3FF476AF08F10F
:103C68002000FEF75FFA524B1B88002B6BD0514B9C
:103C7800B3F900000028504F08DB3A6832B14F4BC7
:103C880080B2198800F096FDA8F80400002329786E
:103C98003B6033703FE74A4B1F684A4B1868381A35
:103CA800FCF700FC02460B464749CDE900230E68A5
:103CB80046490868801BFCF7F5FB454B80461868A9
:103CC8008946C01BFCF7EEFB02460B464149CDE98D
:103CD80002230868301AFCF7E5FB42464B46CDE95B
:103CE8000401DDE90001FCF757FCDDE90423064681
:103CF8000F46DDE90201FCF74FFC02460B46304651
:103D08003946FCF791FA424606460F46DDE90001BE
:103D18004B46FCF78BFADDE90223FCF787FADDE96D
:103D28000423FCF783FA02460B4630463946FCF773
:103D38005DFDFDF79FF8FCF701FC09A3D3E900231B
:103D4800FCF72AFC58E71B4BB8F82E20188800EB24
:103D5800921000B218808DE70000000080842E4188
:103D6800FA48CE3B1835B13D0000001319DDB141CA
:103D7800900C00200004014000E100E0D00C00207D
:103D8800580C0020940C0020D40C0020980C002023
:103D9800200C0020C80C0020C40C0020CC0C0020F3
:103DA800C00C00200000F03F0000E03F120C002093
:103DB800180C00201C0C0020140C00201A0C0020E9
:103DC800380C0020340C00203C0C0020280C00206B
:103DD8002C0C0020300C002008B50021034803F00B
:103DE80009FD0022024B1A7008BD00BF2400002004
:103DF800D00C00202DE9F04F0446A5B04022002148
:103E080014A8A58806F01CFA01220223BE49262D13
:103E18001991BE498DF860201B918DF8693008D939
:103E2800BB4D08232B70BB4803F0D0FD25B0BDE87F
:103E3800F08FB94F023D00223846A9B2FEF742F88A
:103E48002946384604AA04F0A3FC10F0FF06E7D080
:103E5800129BAF4D93F800C02B789DF84C80C3B3EC
:103E6800012B00F0A180032B00F0F881042B00F057
:103E7800D180052BD5D1B8F10D0FD2D1BCF1D30F1C
:103E8800CFD10022701C3844031D13F8011D98423D
:103E980041EA0222F9D1A14B701D1A600022384470
:103EA800031D13F8011D984241EA0222F9D19C49E9
:103EB80006F109030A6000213B441A1D12F8010D9E
:103EC800934240EA0121F9D10723964A2B701160E9
:103ED800A9E7B8F1010FA4D1DFF84C8298F80730B0
:103EE800002B00F0B081022B00F08980BCF1E00FBC
:103EF80000F03081BCF1D00F93D12368590590D5DB
:103F080000220023894C02A8CDE90223FEF740F8DD
:103F18002368029A03991B049B1841F100011B0AAC
:103F280043EA01607D4B1A60FEF7F0FDE068FEF79A
:103F3800C9FCA08AFEF732FF202200213620FEF7B6
:103F48005FF90320FEF704FE044600287FF469AFFA
:103F5800012201460D20FEF753F9BDF818306E49CD
:103F6800ADF85030724B14A81B88ADF858309DF846
:103F78002A308DF86A3004F08FFBC6B206F10308C8
:103F8800012221464046FDF771FFD1232246BB5549
:103F980061494046FDF740FF082221460D20FEF703
:103FA8002FF904232B7041E7B8F1090F7FF439AFDB
:103FB800BCF1E10F7FF435AFFEF782F85D4B741C5E
:103FC8001860FEF781F800225B493C44231D086015
:103FD80013F8011D9C4241EA0222F9D1574B701D8A
:103FE8001A60002207443B1D13F8011D9F4241EA55
:103FF8000222F9D1072352492B700A6013E74B4E6E
:10400800DFF840E1BEE80F000FC69EE8030086E82F
:1040180003006BE7B8F10D0F7FF403AFBCF1D20FCB
:104028007FF4FFAE23685B057FF5FBAE4FF0000819
:104038004FF0000902A8CDE90289DFF8E4A0FDF7F6
:1040480097FF029B02A8CAF80030CDE90289FDF764
:104058009FFF0022029B334C711C394423600B1DC7
:1040680013F8010D994240EA0222F9D10021364B9A
:104078001A60721D3A44131D13F8010D9A4240EA62
:104088000121F9D10022314B06F1090038441960A9
:10409800031D13F8011D984241EA0222F9D1244B6D
:1040A8001D491B8814A8ADF858309DF82A308DF8A2
:1040B8006A30BDF81830ADF85030254B1A6004F05E
:1040C800EBFAD323154AC0B224683B54D2F800C097
:1040D8003B18DAF80060C3F8094000F10F04C3F890
:1040E80001C0C3F80560012200212046FDF7BEFE8D
:1040F800002209492046FDF78FFE0020FEF728FD23
:1041080006232B7092E600BF01000002CDABCDABB9
:10411800D00C0020240000209C0C0020300C002033
:104128003C0C0020280C0020D40C0020400C00205F
:104138001C3F0020C40C0020C80C0020C00C00202C
:10414800CC0C0020B0180108340C0020380C0020DA
:104158002C0C0020236858057FF563AE002200234D
:1041680002A8CDE90223FDF713FF8E4B029E1B68C0
:104178001B049C19039B4FEA142043F1000340EAF7
:104188000360FEF7C3FC0020FEF79CFB0020FEF74F
:1041980005FE202200213620FEF732F80320FEF724
:1041A800D7FC814600287FF43CAE012201460D2051
:1041B800FEF726F8B8F8148024F4FF7323F00103FF
:1041C80013EB0808784B79491B8814A8ADF85830C8
:1041D8009DF82A308DF86A30BDF81830ADF85030A7
:1041E80004F05AFA49465FFA80F909F10B040122F2
:1041F8002046FDF73BFEE122334609F1010139442F
:1042080007F809204A1E033102F8013F91424FEA9C
:104218001323F9D1434609F1050139444A1E0331F4
:1042280002F8013F91424FEA1323F9D100225F4976
:104238002046FDF7F1FD082200210D20FDF7E0FFE3
:1042480002232B70F2E5574EDFF864E1BEE80F0059
:104258000FC69EE8030086E8030047E6B8F1010FA1
:1042680000937FF4DEADBCF1D10F7FF4DAAD2268A4
:1042780052057FF5D6AD4FF0000A4FF0000B02A8AB
:10428800CDE902ABDFF81C91FDF772FE029B02A894
:104298000193CDE902ABFDF77BFED9F81020029E11
:1042A80012049419039A4FEA142042F1000240EADA
:1042B8000260FEF72BFC0020FEF704FBB9F816009D
:1042C800FEF76CFD202200213620FDF799FF009BA8
:1042D8001846FEF73DFC824600287FF4A2AD424610
:1042E80001460D20FDF78CFF324B24F4FF729B8AA8
:1042F80022F00102D2182C4BDFF8BCB01B88DFF883
:10430800BC90ADF85830019BC9F80060CBF800307C
:104318009DF82A302A4E8DF86A30BDF81830394693
:1043280014A8ADF85030326004F0B6F9C4B2424671
:1043380004F10F0851464046FDF798FDD223611C51
:104348003944DBF800203B554B1E033103F8012F9D
:1043580099424FEA1222F9D1611D3944D9F8002057
:104368004B1E033103F8012F99424FEA1222F9D16B
:1043780004F109033B4431685A1E033302F8011F54
:104388009A424FEA1121F9D1002208494046FDF727
:1043980043FD082200210D20FDF732FF05232B7075
:1043A80044E500BF400C00201C3F00209C0C00206E
:1043B80098180108D40C0020340C0020380C002078
:1043C8002C0C002010B50C4C237803B910BD00222A
:1043D80036201146FDF714FF2378022B08D0062B50
:1043E800F4D1072305482370BDE8104003F0EEBA66
:1043F8000023237010BD00BFD00C00202400002033
:10440800024B1878003818BF01207047D00C0020E4
:1044180010B5084C237803B910BD00223620114688
:10442800FDF7EEFE092304482370BDE8104003F0B1
:10443800CDBA00BFD00C002024000020164B1B78FA
:1044480043BB03F1804303F582331B6870B59B06B9
:10445800044612D54FF40006104DC5F88060FEF7EB
:10446800E9FB20686168A2680D4B07C3A3F10C0043
:10447800FEF764F801202E6070BDFEF7DBFB2068B4
:104488006168A268064B07C3A3F10C00FEF756F853
:10449800012070BD00207047040C002000E100E0FE
:1044A800D40C002021B1C379022B01D00020704721
:1044B80010B590F800C00CF1FF335FFA83FEBEF12F
:1044C800060F20D8BCF1060F1DD0407801281CD05B
:1044D800022818D10120BCF1070F06BF05234FF0B1
:1044E800930C0B4C01EB410118BF14F803C003EB0C
:1044F8004101084B00EB410153F82130012082F8BB
:1045080000C0536010BD002010BD0020E3E700BFCD
:104518001C1A0108241A01082DE9F0414B4C86B0F9
:1045280023781BB1002006B0BDE8F081484B03ADED
:1045380093E8070001AE85E807002846FFF77EFFED
:10454800324601212846FFF7ADFF2378002B60D1C2
:1045580003F1804303F582331B68990643D496E838
:1045680003003C4D05F10C0383E803001846FDF7F2
:10457800F3FB01202876FEF785F92378002B48D134
:1045880003F1804303F582331B689A0653D54FF431
:104598000007314B314E44F24700C6F880706B611A
:1045A800FDF708FCA88AFDF721FC3760237883BB58
:1045B80003F1804303F582331B689B062DD54FF426
:1045C800000603230D27254C6D22C4F8806040F6B1
:1045D80006012E206F76AB76FDF712FE01202660CD
:1045E80006B0BDE8F0814FF400081C4F194DC7F81C
:1045F800808005F10C0396E8030083E80300184661
:10460800FDF7AAFB01202876FEF73CF9C7F80080E1
:10461800B3E7012006B0BDE8F08103230D246D2225
:1046280040F606012E206C76AB76FDF7E9FD0120F9
:1046380006B0BDE8F081084B44F247006B61FDF716
:10464800B9FBA88AFDF7D2FBB0E700BF040C002035
:1046580078140108D40C00204740474000E100E0EE
:1046680000487047D40C002010B5254C254805F0AB
:10467800A7FE2178244805F041FE6178234805F01B
:104688003DFEA178224805F039FEE178214805F081
:1046980035FE2179204805F031FE61791F4805F083
:1046A8002DFEA1791E4805F029FEE1791D4805F087
:1046B80025FE217A1C4805F021FE61891B4805F07A
:1046C8001DFE217E1A4805F019FE217B194805F0C8
:1046D80015FE2169184805F011FEE18A174805F012
:1046E8000DFEA18A164805F009FE617E154805F001
:1046F80005FEA17E1448BDE8104005F0FFBD00BFCF
:10470800D40C0020C8180108E8180108F818010896
:1047180004190108101901082019010834190108A1
:10472800481901085C190108701901088019010865
:1047380094190108AC190108BC190108D01901081D
:10474800E4190108F8190108081A01080000000016
:1047580008B5C27903467AB10FA1D1E900011B78E7
:10476800013BDBB2062B0FD8114A02EBC303D3E996
:104778000023FBF711FF08BD1B7809A1D1E900014F
:10478800013BDBB2062BEFD907A3D3E90023FBF7E4
:1047980003FF08BDAFF300800000000030C10D40EA
:1047A8000000000030C1DD3F63F4943B7E3224BF3B
:1047B800881A010870B50C4605461646FFF750FFE3
:1047C8004378022B0CBF4FF47E714FF47871A942E5
:1047D8000FD92B198B42A4BF4C1BA4B2A100AA006D
:1047E8000131F01C92B289B2FEF766F920463560B5
:1047F80070BD0024024805F0E3FD204670BD00BFEF
:10480800C01A01080020704700207047164B30B4CA
:104818001A68164CB2F5205F08BF00222568AA4224
:10482800C6BFC2F520525219AA1A0A44B2F51F5F30
:104838002B4615D281B101440D4D013801395A1C5E
:1048480010F801CFB2F5205F05F803C0B4BF1346D6
:1048580000238142F3D11D460020256030BC7047FB
:10486800022030BC704700BF003C0020FC3B002009
:10487800F813002059B1014438B5441E4D1E14F8F0
:10488800010F03F05BF9AC42F9D1002038BD0020DC
:10489800704700BF0020704710B5064C82B0012158
:1048A8000548064B064A009400F06EFE002002B050
:1048B80010BD00BF7C000020F00C0020E0000020AC
:1048C800600000204FF4007240F2034310B5144C0E
:1048D80082B0204601A9ADF80420ADF8063000F0FA
:1048E80085F94FF4806244F60303204601A9ADF828
:1048F8000420ADF8063000F079F94FF4C05241F2C7
:104908000303204601A9ADF80420ADF8063000F0F5
:104918006DF901214FF4805000F04EFB02B010BD3C
:104928000008014000B54FF4C06083B000F01EF9E4
:1049380001234321032201A88DF805308DF80410C6
:104948008DF806208DF8073000F01AF903B05DF8ED
:1049580004FB00BF704700BF704700BF1223014827
:104968000B80704748000020042301480B807047E3
:104978005C00002010B5044C0A460448214601F0AA
:10498800B5F8204610BD00BFE4120020081B01083E
:104998000A4608B5054920B9054801F0A7F80348B3
:1049A80008BD044801F0A2F8004808BDE412002040
:1049B8001C1B0108401B01080A4608B5054920B917
:1049C800054801F093F8034808BD044801F08EF843
:1049D800004808BDE4120020641B0108741B01088C
:1049E80010B5044C0A460448214601F07FF82046D9
:1049F80010BD00BFE4120020841B010810B5044C50
:104A08000A460448214601F071F8204610BD00BF4F
:104A1800E4120020901B0108704700BF704700BFD8
:104A2800704700BF704700BF704700BF704700BFA6
:104A3800704700BF10B400214FF47F04444A454B2F
:104A4800106883B040F00100106050680340536064
:104A5800136823F0847323F480331360136823F4FA
:104A680080231360536823F4FE035360136823F014
:104A7800A05313609460D16200910191136843F4CC
:104A88008033136003E0009BB3F5A06F09D013686F
:104A980003F400330193009B01330093019B002B27
:104AA800F1D02B4B1B6813F4003318BF012301937B
:104AB800019B012B06D04FF00062274B9A6003B090
:104AC80010BC7047254A224B1068254940F0100059
:104AD8001060106820F003001060106840F00200B9
:104AE80010605A685A605A685A605A6842F480627C
:104AF8005A60DA6A1140D962DA6A42F4833242F0C3
:104B08004402DA621A6842F080621A601A68120176
:104B1800FCD559680E4A21F47C115960596841F452
:104B2800E8115960196841F08071196013689B0198
:104B3800FCD55368064923F003035360536843F0D8
:104B4800020353604B6803F00C03082BFAD1B2E759
:104B5800001002400000FFF000ED00E000200240DD
:104B680000F0FEFFEFF3088000467047034B40F06B
:104B7800BF6040F40030D860704700BF00ED00E02F
:104B8800C37813B3174A30B5D1684FF0010EC94343
:104B98000F23827890F801C00078C1F3022100F059
:104BA8001F040EFA04F4CB40C1F1040E13400CFAB2
:104BB8000EFC0D4D43EA0C031B012A18DBB2400919
:104BC80082F8003345F8204030BD012103780648BB
:104BD8005A0903F01F03203201FA03F340F8223088
:104BE800704700BF00ED00E000E100E02DE9F04172
:104BF80091F803C01CF0100F18BF8B7809880CF0CF
:104C08000F0518BF1D43CBB21BB3002301264FF07D
:104C18000F08046802E00133082B19D006FA03F2E2
:104C280032EA0107F7D14FEA830E08FA0EF724EAB1
:104C3800070405FA0EFEBCF1280F4EEA040432D030
:104C4800BCF1480F03F1010308BF0261082BE5D14D
:104C58000460FF2925D9002301264FF00F08446876
:104C680002E00133082B1BD003F1080206FA02F216
:104C780032EA0107F5D14FEA830E08FA0EF724EA63
:104C8800070405FA0EFEBCF1280F4EEA04040CD006
:104C9800BCF1480F03F1010308BF0261082BE3D1FF
:104CA8004460BDE8F0814261B5E74261D9E700BFE1
:104CB8008368194214BF01200020704701617047C2
:104CC800416170470AB1016170474161704700BF97
:104CD8004FF00F0C01F0FC0303F1804303F5803320
:104CE80001F003019A6889000CFA01FC22EA0C021F
:104CF8009A609A68884010439860704710B4002002
:104D08004FF47F040F4B104A196841F001011960F4
:104D180059680A405A601A6822F0847222F4803274
:104D28001A601A6822F480221A605A6822F4FE0275
:104D38005A601A6822F0A0521A609C6010BCD862AF
:104D4800704700BF001002400000FFF00C4BB0F5A8
:104D5800803F1A6822F480321A601A6822F480228E
:104D68001A6008D0B0F5802F04D11A6842F4A02246
:104D78001A60704770471A6842F480321A607047A8
:104D880000100240002382B00949019300E04AB9AB
:104D98000A68019B02F4003201330193019BB3F5C9
:104DA800A06FF4D1024B1868C0F3404002B07047BE
:104DB80000100240034A536823F474130B4303435F
:104DC8005360704700100240014B1866704700BFDF
:104DD80000004242044AD36A23F4803323F00F03CD
:104DE8000B430343D362704700100240034AD36A5F
:104DF80023F0F0030343D362704700BF0010024062
:104E0800034AD36A23F470630343D362704700BF35
:104E180000100240014B9866704700BF00004242F4
:104E2800034A536823F0030303435360704700BFEA
:104E380000100240024B586800F00C00704700BF99
:104E480000100240034A536823F0F0030343536001
:104E5800704700BF00100240034A536823F4E06320
:104E680003435360704700BF00100240034A536871
:104E780023F4605343EAC0035360704700100240B4
:104E8800034A536823F4404303435360704700BF09
:104E9800001002400022084B012883F8202083F8E4
:104EA800202006D0042803D1052283F8202070474B
:104EB800704783F82000704700100240024A136AC6
:104EC80003431362704700BF00100240014BC3F850
:104ED8003C04704700004242314A30B4536803F042
:104EE8000C03042B23D0082B25D02E4A134602602E
:104EF8002B4A2D4C5168C1F30311615CCB404360D0
:104F08005168C1F30221615C23FA01F181605168A3
:104F1800C1F3C221645C2549E340C360526830BCD8
:104F2800C2F381328A5CB3FBF2F303617047204A13
:104F380013460260DCE753685268C3F383430D2BC2
:104F480002F480320CBF062302337AB11449CC6ACA
:104F5800CA6AE40302F00F0202F101020BD41449F9
:104F6800B1FBF2F202FB03F30360C1E7114A02FB53
:104F780003F30360BCE7CD6ACC6AC5F3031101F102
:104F8800010C0B49C4F30324B1FBFCF1023404FB0C
:104F980001F1B1FBF2F202FB03F30360A8E700BFE3
:104FA8000010024000127A00A00000209C0000209F
:104FB800001BB70000093D00044A536911B11843AA
:104FC8005061704723EA00005061704700100240AA
:104FD800044A936911B118439061704723EA0000AD
:104FE8009061704700100240044AD36911B1184318
:104FF800D061704723EA0000D0617047001002407A
:10500800014BC3F840047047000042424309012B9A
:105018000BD0022B094B00F01F000CBF1B6A5B6A08
:1050280023FA00F000F001007047044B00F01F0065
:105038001B6823FA00F000F00100704700100240DE
:1050480083793BB31D4B01681A6810B422EA010248
:105058001A605A6822EA01025A60027902F1804213
:1050680002F582321468214311609968026821EAC6
:1050780002019960D96821EA0201D96041791029B1
:1050880013D001F1804303F58233196810BC0A4339
:105098001A6070470379016803F1804303F582338E
:1050A8001A6822EA01021A607047996810BC114315
:1050B8009960D9680A43DA60704700BF000401406C
:1050C800014B5861704700BF00040140054A13882E
:1050D8009BB211B118431080704723EA000010807A
:1050E800704700BF00280040034A938B108B9BB287
:1050F80043EA0040704700BF00280040084A9388F0
:105108009BB243F010039380C0F3034380B2138132
:105118009081938823F010031B041B0C9380704725
:1051280000280040084A93889BB243F010039380FC
:10513800030C80B213849084938823F010031B041B
:105148001B0C9380704700BF00280040024A9388D8
:105158009B06FCD5704700BF00280040054A93888D
:1051680023F008031B041B0C938093881B07FCD5B2
:10517800704700BF00280040064B01469A881B88EC
:1051880092B2184005D002EA0100C0B2003818BF38
:105198000120704700280040034A93889BB223EA05
:1051A80000039380704700BF0028004008B5012025
:1051B800FFF726FFBDE808400020FFF721BF00BF2A
:1051C800034A136803F0380303431360704700BFB2
:1051D80000200240044B196821F0100119601A6878
:1051E80002431A60704700BF00200240014B18605C
:1051F800704700BF00300040014B5860704700BF47
:1052080000300040014B9860704700BF00300040FC
:105218004AF6AA22014B1A60704700BF00300040CE
:105228004CF6CC42014B1A60704700BF003000407A
:10523800014B1862704700BF00000E42034B5B68C9
:10524800034214BF01200020704700BF00700040D7
:10525800024A136843EA80031360704700700040F5
:10526800B1F802C00B888A8843EA0C03B1F806C07B
:1052780013430A8943EA0C0300B5B1F80AE0B1F810
:105288000CC0134343EA0E03028843EA0C03B1F847
:105298000EC002F4415243EA0C0313439BB203804D
:1052A800838B0A8A23F400631B041B0C838302820A
:1052B8005DF804FB00230722038043808380C380BA
:1052C800038143818381C38102827047038821B1AE
:1052D8009BB243F040030380704723F040031B0454
:1052E8001B0C0380704700BF81817047808980B2A2
:1052F800704700BF838821B19BB243F004038380C9
:10530800704723F004031B041B0C8380704700BF05
:105318000389194214BF012000207047D0F8E835EE
:1053280010B51B6904469847032384F812310020FE
:1053380010BD00BF042208B590F81211D0F8E83566
:1053480080F8131180F81221DB689847002008BD07
:1053580008B5D0F8E435DB6903B19847002008BDEB
:1053680008B5D0F8E4351B6A9847002008BD00BF8F
:1053780008B5D0F8E4355B6A9847002008BD00BF3F
:10538800D0F8E83510B55B6904469847012384F8DE
:105398001531002010BD00BF10B50446D0F8E8351F
:1053A8009B699847D4F8E435002120465B68984704
:1053B800002084F8150110BD002310B504461946D5
:1053C800402201F0B1FC802100234022204601F058
:1053D800ABFC0122D4F8E83584F81221A0785B6888
:1053E8009847002010BD00BF10B582B0694604463A
:1053F80000F04CFB9DF8001001F01F03012B0AD0B0
:10540800022B16D073B1204601F0800101F022FD75
:10541800002002B010BD6946204600F095FA002031
:1054280002B010BD6946204600F030F9002002B0F5
:1054380010BD6946204600F0A9FA002002B010BD50
:1054480038B5044649B990F81131022B1AD094F8AE
:105458001631012B0DD0002038BDD0F8E4355B693A
:10546800002BF8D090F81221032AF4D19847002095
:1054780038BD00232549226909680020516084F855
:10548800163138BDD0F83821D0F824319A4214D9D1
:10549800C178D21A0129D0F82811C0F8382104BFE0
:1054A800C918C0F8281192B200F0AEF800232046BF
:1054B8001A46194601F08CFCC9E7D0F83C21B2FB2A
:1054C800F3F503FB15258DB993420FD8D0F8403179
:1054D8009A420BD22A4600F097F82B462A462946CC
:1054E8002046C4F8405101F073FCB0E7D4F8E43525
:1054F800DB681BB194F81221032A03D0204600F080
:10550800B5F8A4E720469847F8E700BFE413002061
:1055180010B5044629B990F81131032B0DD000209D
:1055280010BDD0F8E4359B69002BF8D090F8122113
:10553800032AF4D19847002010BDD0F89033D0F852
:105548007C23934211D9C1789B1A0129D0F8801382
:10555800C0F8903304BF8918C0F880139A4228BF56
:105568001A4692B200F068F8D9E7D0F8E4351B691A
:105578001BB190F81221032A03D0204600F066F8E8
:10558800CDE79847F9E700BF2DE9F04104461546F5
:105598001F460E46DDF81880FFF794F9204631467D
:1055A800C4F8E475C4F8E885C4F8EC5501F074FB58
:1055B800D4F8E8351B6898472046BDE8F041FFF766
:1055C800B1B900BF10B50446D0F8E4351B68984758
:1055D800D4F8E8359B689847002010BD08B5D0F886
:1055E800E4355B689847002008BD00BF08B513463E
:1055F8004FF0020E0A46C0E94E33002180F811E14F
:1056080001F00AFC002008BD8C4608B500211346AD
:10561800624601F001FC002008BD00BF08B5134632
:105628004FF0030E0A46C0E9E433002180F811E187
:1056380001F0CEFB002008BD8C4608B500211346BA
:10564800624601F0C5FB002008BD00BF00234FF0F3
:10565800040C10B504461A46194680F811C101F029
:10566800DBFB204600F0FEFF002010BD00234FF0BA
:10567800050C10B504461A46194680F811C101F008
:10568800A7FB204600F0EEFF002010BD70B54B7858
:105698000D46044682B0092B14D8DFE803F04053C6
:1056A8001366137B051397214B88CA881E0A022E9E
:1056B800ADF8062000F02181032E00F0E580012ED0
:1056C80000F094808021204601F0C4FB0021204690
:1056D80001F0C0FB204600F0C5FF002002B070BDFD
:1056E8008978954D01292970ECD890F81231022B50
:1056F80000F09680032BE5D1002900F00D8190F889
:10570800101101292DD0FFF769FF2978204684F868
:105718001011FFF757FF2046FFF798FFDDE790F8D5
:105728001231023B012BCDD80121844BD0F818212E
:1057380019600AB103221A60022220467F49FFF746
:1057480055FFCAE790F81231023B012BBAD84B88B3
:10575800012BC2D10022D0F8E4359B68C0F818218B
:1057680098472046FFF772FFB7E74B88012B00F0F8
:105778008180022BB1D18B88DAB2002AADD10269BF
:105788001B0A023B5268032B00F2D180DFE803F0CA
:105798006E6A665A8B88002B94D1CB88002B91D1E6
:1057A80090F81231032B8DD04D8805F07F0580F8D5
:1057B8001451294601F092FB2046FFF747FF002DC0
:1057C80000F0A680022384F8123186E7CA88012AED
:1057D8007FF478AF90F81231022B2FD0032B7FF48F
:1057E80071AF00F58871FFF701FF76E7D0F8EC3567
:1057F8000DF1060180781B689847BDF80620002A3D
:105808003FF46BAFEB88002B3FF467AF9A4228BF99
:105818001A4601462046ADF80620FFF7E7FE5CE78A
:1058280000299ED00121032380F8101180F812313D
:10583800FFF7C8FE2046FFF709FF4EE74049FFF78C
:10584800D5FE4AE7052363F3061201233D492046A6
:1058580084F816310A60FFF7F9FE3EE7042363F384
:105868000612F2E7032363F30612EEE7022363F35B
:105878000612EAE7D0F8E4259268C0F81831904794
:105888002046FFF7E3FE28E7DBB2052B3FF61AAF09
:10589800DFE803F02B231B130B03D0F8EC350DF1D5
:1058A80006019B6980789847A7E7D0F8EC350DF199
:1058B80006015B69807898479FE7D0F8EC350DF1D1
:1058C80006011B698078984797E7D0F8EC350DF109
:1058D8000601DB68807898478FE7D0F8EC350DF142
:1058E80006019B688078984787E7D0F8EC350DF17A
:1058F80006015B68807898477FE7D0F8E4350DF1BA
:1059080006019B6A807898474670C4F8F00574E7EA
:10591800012384F81231E0E6022380F8101180F8A0
:105928001231FFF75BFE2046FFF790FED5E6012314
:1059380063F3061289E700BFF4130020E813002080
:10594800EC130020E413002038B590F81231044617
:10595800032B0DD10B790D46012B09D8D0F8E4356E
:105968009B689847EB8873B92046FFF76FFE0AE0FB
:105978008021204601F06EFA0021204601F06AFAE3
:10598800204600F06FFE002038BD00BF38B50B7808
:10599800054603F06003202B8A880AD04B780C4612
:1059A800012B5FFA82FC23D0032B3AD03BB10020B5
:1059B80038BDD0F8E4359B689847002038BD90F88A
:1059C8001231022B4AD0032B3BD113064DD40CEBDA
:1059D8008C0C00EBCC0C9CF87633002B4FD00122BA
:1059E800294B1A60022228462749FFF7FFFDDEE708
:1059F80090F81231022B31D0032B22D14B88002B87
:105A0800D5D11CF07F0F08D0614601F045FAD5F8D2
:105A1800E435214628469B6898472846FFF716FE36
:105A2800C5E790F81231022B18D0032B09D14B8807
:105A3800002BECD11CF07F0FE9D0614601F00AFA87
:105A4800E5E78021284601F005FA0021284601F003
:105A580001FA284600F006FE002038BD1CF07F0F32
:105A6800A5D0614601F0F6F9A1E70CF07F0C0CEB2C
:105A78008C0C00EBCC0C9CF81E31002BAFD1002213
:105A8800014B1A60AEE700BFF0130020012290F826
:105A9800CC350B7090F8CD354B7090F8CFC590F899
:105AA800CE3503EB0C234B8090F8D1C590F8D03558
:105AB80003EB0C238B8090F8D3C590F8D23503EB19
:105AC8000C239BB2CB80C0F8403180F8112170477D
